:020000040802F0
:1000000000000824E5410208F1040208F504020892
:10001000F9040208FD0402080105020800000000BE
:1000200000000000000000000000000005050208BC
:1000300009050208000000000D050208110502086C
:10004000394202083942020839420208394202089C
:10005000394202083942020839420208394202088C
:10006000394202083942020839420208394202087C
:10007000394202083942020839420208394202086C
:10008000394202083942020839420208394202085C
:10009000394202083942020839420208394202084C
:1000A000394202083942020839420208394202083C
:1000B000394202083942020839420208394202082C
:1000C000394202083942020839420208394202081C
:1000D000394202083942020839420208394202080C
:1000E00015050208394202080000000039420208E2
:1000F00039420208394202083942020839420208EC
:1001000039420208394202083942020839420208DB
:1001100039420208394202083942020839420208CB
:1001200039420208394202083942020839420208BB
:1001300039420208394202083942020839420208AB
:1001400039420208394202080000000000000000A5
:10015000394202083942020839420208394202088B
:10016000394202083942020839420208394202087B
:1001700039420208394202083942020800000000F0
:10018000394202083942020839420208394202085B
:10019000394202083942020839420208394202084B
:1001A000394202083942020839420208394202083B
:1001B0003942020839420208394202083105020870
:1001C000350502083942020839420208394202085C
:1001D0003942020839050208394202083942020848
:1001E00039420208394202083942020839420208FB
:1001F00039420208394202083942020839420208EB
:1002000039420208394202083942020839420208DA
:1002100039420208394202083942020839420208CA
:1002200039420208394202083942020839420208BA
:1002300039420208394202083942020839420208AA
:10024000394202083942020839420208394202089A
:10025000394202083942020839420208394202088A
:10026000394202083942020839420208394202087A
:10027000394202083942020839420208394202086A
:1002800039420208394202083942020800000000DF
:0802900039420208394202085C
:1002980010B5054C237833B9044B13B10448AFF3B8
:1002A80000800123237010BD5C01002400000000C1
:1002B8002044020808B5034B1BB103490348AFF3B8
:1002C800008008BD000000006001002420440208EE
:1002D80070B59EB04C2200210AA803F0B1FF20227D
:1002E800002102A803F0ACFF042001F08DFA254B91
:1002F8000021254A0191D96A21F00101D962DB6AFE
:1003080003F001030193936923F4404343F48043CA
:100318009361936903F440430193019B93699B04A0
:10032800FCD5022329204FF48031012417930A2297
:10033800199303251B931895CDE9133300231C93B8
:100348000C23CDE90A010AA81A93CDE90F44CDE997
:10035800154201F031FF034608B172B6FEE73F26A9
:100368004022214602A803950296CDE90433CDE93F
:100378000633CDE9083202F0FDFA08B172B6FEE79D
:100388001EB070BD0004005800480258514B0122AD
:1003980070B5002490B0504D01260E942846CDE942
:1003A8000A44CDE90C44D3F8E01041F01001C3F839
:1003B800E010D3F8E01001F0100101910199D3F891
:1003C800E01041F00201C3F8E010D3F8E01001F0AA
:1003D800020102910299D3F8E01041F00401C3F838
:1003E800E010D3F8E01001F0040103910399D3F869
:1003F800E01041F04001C3F8E010D3F8E01001F03C
:10040800400104910499D3F8E01041F00801C3F8C1
:10041800E010D3F8E01001F0080105910599D3F830
:10042800E0101143C3F8E010D3F8E0101140069132
:100438000699D3F8E01041F02001C3F8E010D3F892
:10044800E01001F0200107910799D3F8E01041F47A
:100458008071C3F8E010D3F8E01001F480710891BE
:100468000899D3F8E01041F08001C3F8E0104FF488
:100478008051D3F8E03003F080030993099B01F021
:1004880085F84FF4805328460AA90D940A93CDE9BC
:100498000B6400F03FFD08230AA91048CDE90A368D
:1004A800CDE90C4400F036FD4FF488134FF40052A8
:1004B8000AA90B480C94CDE90A2300F02BFD22462B
:1004C8000521282000F0A6FB282000F0DFFB10B053
:1004D80070BD00BF004402580020025800100258A6
:1004E8000008025872B6FEE7FEE700BFFEE700BF4D
:1004F800FEE700BFFEE700BFFEE700BF704700BF92
:10050800704700BF704700BF00F0ACB84FF4005010
:1005180008B501F061F84FF480510248BDE8084081
:1005280001F038B800200258704700BF704700BF7C
:10053800704700BF704700BF704700BF10B5194B28
:100548000024194940F27120184AD9671821DC673C
:10055800C3F88020164AC3F88040C3F884004FF4DB
:100568009B70C3F88440C3F88820124AC3F88840B7
:10057800C3F88C10C3F88C400F49C3F890200F4A79
:10058800C3F89040C3F89400C3F89440C3F8981097
:10059800C3F89840C3F89C20C3F89C4001F02CF89D
:1005A800204610BD004402583150010023C0000A03
:1005B800FF072803FFC3FFE83330D731AADE200046
:1005C80038B50E4D2B780BB9012038BD04464FF4D1
:1005D8007A700B4AB0FBF3F31068B0FBF3F000F04D
:1005E80087FB0F2CF0D80028EED1002221464FF0CF
:1005F800FF3000F00FFB00206C6038BD00000024C5
:100608000C00002410B50320124C00F0F1FA02F09F
:1006180023F9114B11499A699B69C2F3032203F02C
:100628000F038A5CCB5C02F01F020D4903F01F0325
:10063800D04020FA03F308600F202360FFF7C0FFC3
:1006480010B10124204610BD044600F0D3FF204617
:1006580010BD00BF080000240044025838440208B6
:100668000C000024034A044B11681B780B441360E8
:10067800704700BF7801002400000024014B18686F
:10068800704700BF78010024014B5868704700BFCD
:100698000000002438B5074C2578854201D1002098
:1006A80038BD034660682370FFF78AFF0028F7D03B
:1006B800257038BD00000024014B1878704700BF32
:1006C8000000002438B50446FFF7D8FF0546631C30
:1006D80002D0044B1B781C44FFF7D0FF401BA042FC
:1006E800FAD338BD000000244FF0E022136923F04C
:1006F80002031361704700BF4FF0E022136943F013
:1007080002031361704700BF0048704700050B01E2
:10071800014B1868000C70470010005C024B186809
:10072800C0F30B00704700BF0010005C014BD3F80A
:100738000008704700E0F11F014BD3F80408704728
:1007480000E0F11F014BD3F80808704700E0F11FE3
:10075800034A136823F0700303431360704700BF14
:10076800003C0058034A136823F002030343136054
:10077800704700BF003C0058034A536823F03F030A
:1007880003435360704700BF003C005838B50A4C1B
:10079800236843F001032360FFF770FF054604E078
:1007A800FFF76CFF401B0A2804D823681B07F7D5FE
:1007B800002038BD032038BD003C0058024A1368A9
:1007C80023F0010313607047003C0058034A536844
:1007D80023F4600303435360704700BF00040058CC
:1007E800034A536823EA00030B435360704700BF72
:1007F80000040058024A536843F4807353607047FA
:1008080000040058024A536823F480735360704709
:1008180000040058090C094A38B9D2F808339BB2C9
:1008280043EA0143C2F808337047D2F80C336FF338
:100838000F030B43C2F80C33704700BF0004005885
:10084800090C094A38B9D2F80C339BB243EA014380
:10085800C2F80C337047D2F810336FF30F030B4311
:10086800C2F81033704700BF00040058034AD2F89A
:10087800043343F48033C2F804337047000400584B
:10088800034AD2F8043323F48033C2F804337047A0
:1008980000040058034AD2F8043343F00103C2F8B5
:1008A8000433704700040058034AD2F8043323F095
:1008B8000103C2F80433704700040058024A136A5F
:1008C80043F001031362704700040058024A136A98
:1008D80023F001031362704700040058024A136AA8
:1008E80043F480331362704700040058024A136AC5
:1008F80023F480331362704700040058034A136AD4
:1009080023F0020303431362704700BF000400583A
:10091800044A936A23F0FF030B4343EA00139362EC
:10092800704700BF00040058024A536843F00103AF
:10093800536070470010005C024A536823F00103BB
:10094800536070470010005C024A536843F002038A
:10095800536070470010005C024A536823F002039A
:10096800536070470010005C024A536843F0040368
:10097800536070470010005C024A536823F0040378
:10098800536070470010005C024A536843F0080344
:10099800536070470010005C024A536823F0080354
:1009A800536070470010005C024A536843F010031C
:1009B800536070470010005C024A536823F010032C
:1009C800536070470010005C024A536843F02003EC
:1009D800536070470010005C024A536823F02003FC
:1009E800536070470010005C034A136823F040739B
:1009F80003431360704700BF00400052024B186861
:100A080000F04070704700BF0040005220F01F0205
:100A1800012300F01F0030B40B4C834002F1B040BA
:100A2800155925EA03051551056825EA03050560EA
:100A3800CD0202D505681D430560890202D511590A
:100A48000B43135130BC70470400005820F01F01BD
:100A5800044A00F01F0001238340885803438B5049
:100A6800704700BF080000584309012200F01F002A
:100A780002491B0182405A50704700BF8800005845
:100A88004309012200F01F0002491B0182405A500D
:100A9800704700BFC8000058CB0310B501F40034FC
:100AA8001AD51A4900F01F0E01234FEA501C01EB1A
:100AB800501103FA0EF30901CAB90A6822EA0302BF
:100AC800DB430A603CB14FEA0C1C11495CF8012079
:100AD80013404CF8013010BD002CFCD000F01F0171
:100AE80001234FEA501C8B4032B9DB43EBE70A681D
:100AF8001A430A60002CEED04FEA0C1C04495CF83B
:100B0800012013434CF8013010BD00BF08008005D8
:100B180084000058CB0310B501F400341AD51A49E3
:100B280000F01F0E01234FEA501C01EB501103FA8D
:100B38000EF30901CAB90A6822EA0302DB430A6014
:100B48003CB14FEA0C1C11495CF8012013404CF8E9
:100B5800013010BD002CFCD000F01F0101234FEA2A
:100B6800501C8B4032B9DB43EBE70A681A430A6032
:100B7800002CEED04FEA0C1C04495CF8012013430A
:100B88004CF8013010BD00BF0C008005C4000058AF
:100B980010B5012300F01F0E9446124C20F01F02DE
:100BA80003FA0EF3C9B9115921EA03031351C30615
:100BB8004FEA40004FF0030E58BF0B4B00F01E00E9
:100BC80048BF0A4B0EFA00FE0CFA00F113441A68EB
:100BD80022EA0E020A431A6010BD11590B43135141
:100BE800E5E700BF0C00005810000058140000583A
:100BF80006494FF6FF0C0002054BCA6800F4E06096
:100C080002EA0C0210430343CB60704700ED00E09A
:100C18000000FA051A4BDB68C3F3022300B5C3F1E1
:100C2800070E03F1040CBEF1040F28BF4FF0040EA9
:100C3800BCF1060F1AD9A3F1030C4FF0FF3303FAE6
:100C48000CF322EA03024FF0FF33002803FA0EF3F5
:100C580021EA030303FA0CF343EA02034FEA0313FE
:100C6800DBB206DB074A13545DF804FB0022944606
:100C7800E9E700F00F00044A13545DF804FB00BFD5
:100C880000ED00E000E400E014ED00E0002807DBE0
:100C9800012300F01F01034A40098B4042F820302D
:100CA800704700BF00E100E000280CDB4309012287
:100CB80000F01F0004492033824041F82320BFF38D
:100CC8004F8FBFF36F8F704700E100E0BFF34F8F86
:100CD8000549064BCA6802F4E0621343CB60BFF3D0
:100CE8004F8F00BFFDE700BF00ED00E00400FA05EC
:100CF800431EB3F1807F01D3012070474FF0E022FB
:100D0800002005494FF0F00C5361072381F823C0F8
:100D180090611361704700BF00ED00E0BFF35F8F83
:100D2800044B00215A6A22F480325A62C3F89410A4
:100D3800704700BF00ED00E0064B40F00100C3F82B
:100D480094005A6A42F480325A62BFF34F8FBFF35D
:100D58006F8F704700ED00E0044BC3F89800D3F89C
:100D6800A02042F00102C3F8A020704700ED00E087
:100D7800044BC3F89800D3F8A02022F00102C3F86E
:100D8800A020704700ED00E0164A4378C2F898307A
:100D9800D2F8A03023F00103C2F8A0304368C2F8AB
:100DA8009C30C37A90F80CC01B06017843EA0C7398
:100DB80090F80AC00B43417B43EACC4390F80EC03D
:100DC80043EA8143C17B43EA4C4390F809C043EAB4
:100DD8000143017A43EA0C2343EA4103C2F8A030F5
:100DE800704700BF00ED00E0024BD868C0F3022056
:100DF800704700BF00ED00E0002810B422DB144C5F
:100E0800205C000901F00701C1F1070C0C1DBCF1C1
:100E1800040F28BF4FF0040C062C11D903394FF0EA
:100E2800FF348C4020EA0404C8404FF0FF3101FA37
:100E38000CF120EA010010601C605DF8044B70475B
:100E48000024F2E700F00F00024C205C0009D9E70B
:100E580000E400E014ED00E0002808DB430901226B
:100E680000F01F0002494033824041F823207047B8
:100E780000E100E000280BDB4309064A00F01F00F0
:100E8800403352F8233023FA00F000F00100704795
:100E98000020704700E100E0002808DB4309012238
:100EA80000F01F0002496033824041F82320704758
:100EB80000E100E000280BDB4309064A00F01F00B0
:100EC800803352F8233023FA00F000F00100704715
:100ED8000020704700E100E04FF0E0220428136989
:100EE8000CBF43F0040323F004031361704700BFF1
:100EF800704700BF08B5FFF7FBFF08BD044B1B6830
:100F080003F0F003702B14BF01200320704700BFCB
:100F180000ED00E00B68002B00F0DC81B44A904241
:100F28004FF000022DE9F04F4FF0010B85B000F0B3
:100F380005814FF0B04E00930BFA02FC009B1CEAAF
:100F4800030A00F04B814D685400032305F00307A2
:100F580003FA04F607F1FF38F643B8F1010F40F23F
:100F68005D81032F40F0CF8107FA04F4076815F478
:100F7800403F06EA070644EA0604046000F02E81B2
:100F88009C4E02F003070F23D6F8F440BF0044F04C
:100F9800020403FA07FC984BC6F8F440D6F8F4406C
:100FA80022F00306984206F1B04604F0020406F562
:100FB80080660394039CB46824EA0C0400F07881EA
:100FC8008E4B984200F0DE80DFF834C2604500F0B6
:100FD8007B81DFF830C2604500F07D81DFF828C2F0
:100FE800604500F06B81DFF824C2604500F079812C
:100FF800DFF81CC2604500F07A81DFF818C260454E
:1010080000F07B81DFF810C260450CBF4FF0090C7F
:101018004FF00A0C0CFA07F73C43B8E0D0F80890F8
:10102800022CCE680AEA090906FA07F848EA09080C
:10103800C0F80880C5F30018D0F8049008FA02F840
:1010480029EA0E0E48EA0E0EC0F804E0D0F80C802B
:101058008E680AEA080806FA07FE4EEA080EC0F883
:101068000CE017D102F0070E0E694FEAD2084FEADA
:101078008E0E00EB880806FA0EF6D8F82090009637
:101088000F2606FA0EFE009E29EA0E0946EA090E08
:10109800C8F820E0BC40076815F4403F07EA0A0793
:1010A80044EA0704046045D0524F0F26D7F8F440AD
:1010B80044F00204C7F8F440D7F8F44022F00307DC
:1010C80004F0020407F1B047039407F58067039C16
:1010D80002F00304D7F808E0A40006FA04F4EE02CC
:1010E8002EEA0404BC604FF0B0446FEA0C07246891
:1010F80000F1D2803C404FF0B04634607468AE02D4
:1011080000F1D3803C404FF0B0467460D6F884407C
:10111800AE0300F1C7803C404FF0B046ED03C6F87F
:101128008440D6F8804000F1BA803C404FF0B0458A
:10113800C5F88040013233FA02F455D00BFA02FEAA
:1011480013EA0E0CF6D04D685700032605F0030489
:1011580006FA07F86FEA080A04F1FF38B8F1010F38
:101168007FF65CAF032C95D0DFF884808E68D8F8C2
:101178000C9006FA07FE0AEA09094EEA090EC8F8B1
:101188000CE087E74FF0020C0CFA07F73C43B46019
:10119800EF02DEF800406FEA0A064CBF4AEA040490
:1011A8003440AB02CEF80040DEF8044054BF34406F
:1011B8004AEA0404AF03CEF80440DEF8844054BF82
:1011C80034404AEA0404EB03CEF88440DEF8804059
:1011D80054BF34404AEA0404CEF880400132009BF0
:1011E80033FA02F47FF4A8AE05B0BDE8F08F00BF73
:1011F800000002580044025800040258000802582F
:10120800000C025800100258001402580018025826
:10121800001C02580020025800240258D0F80890F8
:10122800022FCB6809EA060903FA04F88B6848EA32
:101238000908C0F80880C5F30018D0F8049008FA27
:1012480002F829EA0C0C48EA0C0CC0F804C003FAAE
:1012580004FCD0F80C8008EA06084CEA080CC0F830
:101268000CC07FF481AE02F0070C0B694FEAD2087C
:101278004FEA8C0C00EB880803FA0CF3D8F820909E
:1012880001930F2303FA0CFC019B29EA0C0943EA9A
:10129800090CC8F820C067E644EA0C042BE744EAC6
:1012A8000C0443E74CEA040436E744EA0C042AE752
:1012B8004FF0010C0CFA07F73C4368E74FF0050CB8
:1012C8000CFA07F73C4362E74FF0030C0CFA07F7F8
:1012D8003C435CE770474FF0040C0CFA07F73C43BB
:1012E80055E74FF0060C0CFA07F73C434FE74FF071
:1012F800070C0CFA07F73C4349E74FF0080C0CFAC7
:1013080007F73C4343E7D0F80C808B6808EA0608E7
:1013180003FA04FC4CEA080CC0F80CC024E600BF31
:10132800002900F00C818B4B98422DE9F04F00F01A
:101338009A8000234FF00F094FF0030A4FF0B04690
:1013480001229A4012EA010E77D023F0030503F038
:101358000304814F05F1B045A400B84209FA04F826
:10136800D5F808C405F5806508EA0C0C27D07B4F32
:10137800B8426ED07A4FB84270D07A4FB84263D034
:10138800DFF8E8B1584500F0D580DFF8E4B15845FA
:1013980000F0D680DFF8DCB1584500F0C680DFF8F1
:1013A800D8B1584500F0D180DFF8D0B158450CBF0E
:1013B8004FF0090B4FF00A0B0BFA04F402E0012777
:1013C80007FA04F4A44517D1D6F8804024EA0E049D
:1013D800C6F88040D6F8844024EA0E04C6F8844053
:1013E800746824EA0E047460346824EA0E043460D5
:1013F800AC6824EA0804AC605D0004684FEAD30CCA
:101408000AFA05F500EB8C0C2C43046003F0070482
:10141800DCF820E0A40009FA04F42EEA0404CCF86D
:101428002040C46824EA0504C460446824EA02022F
:101438004260826822EA05028260013331FA03F2CF
:101448007FF47EAFBDE8F08F4FF0040B0BFA04F485
:10145800B8E74FF0020B0BFA04F4B3E74FF0030BB5
:101468000BFA04F4AEE700224FF0010C3E4F0F25B3
:101478004FF0B0464FF0030E02F003030CFA02F4EB
:1014880022F003089B0011EA0409B84405FA03F3A3
:1014980045D0D8F808A013EA0A0F1DD1D6F880A0C5
:1014A8002AEA090AC6F880A0D6F884A02AEA090A16
:1014B800C6F884A0D6F804A02AEA090AC6F804A047
:1014C800D6F800A02AEA0909C6F80090D8F80890CA
:1014D80029EA0303C8F808304FEA420803684FEACC
:1014E800D2090EFA08F800EB890943EA08030360F9
:1014F80002F00703D9F820A09B0005FA03F32AEAB3
:101508000303C9F82030C36823EA0803C3604368AB
:1015180023EA04034360836823EA080383600132F3
:1015280031FA02F3A8D1BDE8F08F4FF0070B0BFAA0
:1015380004F447E74FF0050B0BFA04F442E7704751
:101548004FF0060B0BFA04F43CE74FF0080B0BFACC
:1015580004F437E700000258000402580008025853
:10156800000C0258001002580004005800140258D9
:1015780000180258001C0258002002580024025883
:101588000369194214BF01200020704702B90904F9
:1015980081617047436901EA030221EA030141EAD4
:1015A80002418161704700BF82B04FF480330193DC
:1015B800019B0B430193019BC361C161019BC36103
:1015C800C3690193C06980F48030C0F3004002B061
:1015D800704700BF704700BF4FF0B042D2F8881084
:1015E800014200D1704708B5C2F88800FFF7F2FF42
:1015F80008BD00BF704700BF704700BF704700BFFD
:10160800704700BF704700BF024A136843F48073F5
:101618001360704700480258024A136823F4807325
:10162800136070470048025818B312494FF0B0428F
:101638000B6810B423F0E003046823430B601368BD
:1016480023F480331360536823F480335360436872
:10165800D90703D5116841F4803111609B0705D57E
:101668004FF0B042536843F4803353605DF8044B45
:101678007047704700480258024A136843F0100345
:101688001360704700480258024A136823F0100399
:101698001360704700480258034A044B916A0B4094
:1016A80003439362704700BF00480258C0C000F06F
:1016B800034A00F03F00936A23EA000393627047ED
:1016C80000480258054A0129136923F004031361ED
:1016D80001D020BF704730BF704700BF00ED00E069
:1016E80038B5124C0D46236823F0010303432360E9
:1016F800FFF704FC236903280D4A0CBF23F00503F8
:1017080023F006032361136943F004031361BFF355
:101718004F8FBFF36F8F012D06D020BF044A136986
:1017280023F00403136138BD30BFF7E700480258BF
:1017380000ED00E008B5FFF7E1FB0F4B03281A693D
:1017480011D042F006021A615A6942F006025A6143
:101758000A4A136943F004031361BFF34F8FBFF3C1
:101768006F8F30BF08BD42F005021A615A6942F016
:1017780005025A61ECE700BF0048025800ED00E09E
:10178800024A136943F002031361704700ED00E059
:10179800024A136923F002031361704700ED00E069
:1017A800024A136943F010031361704700ED00E02B
:1017B800024A136923F010031361704700ED00E03B
:1017C800704700BF08B5FFF799FB03284FF0B043F7
:1017D8000DD0D3F8C820D20300D408BDD3F8C82050
:1017E80042F48032C3F8C820FFF7EAFF08BDD3F8F7
:1017F8008820D103F1D5D3F8882042F48032C3F889
:101808008820FFF7DDFF08BD70B51B4C0546E3686F
:1018180003F00703062BE36805D003F03F03181A0B
:1018280018BF012070BD23F03F030343E360FEF7B8
:1018380025FF064605E0FEF721FF831BB3F57A7FF7
:1018480018D863689A04F6D5A5F11D03012B04D9AD
:101858002D3D012D01D9002070BDFEF70FFF064D6B
:101868000446EB68DB03F6D4FEF708FF001BB0F56F
:101878007A7FF6D9012070BD00480258024BD8681B
:1018880000F03F00704700BF0048025870B52B4C6D
:10189800636803F4404383421BD00546D8B16368AC
:1018A80003F44043B3F5404F31D0244A936923F4FD
:1018B80040432B439361FEF7E1FE204D044605E0CB
:1018C800FEF7DCFE001BB0F57A7F07D86B689B0437
:1018D800F6D5002070BDE3689D0701D4012070BDD6
:1018E800A36943F44043A361FEF7C8FE054605E03B
:1018F800FEF7C4FE401BB0F57A7FEFD86368980402
:10190800F6D50F4AD36A43F00103D362D3E70C4BF1
:10191800DA6AD107C9D5DA6A22F00102DA62FEF77B
:10192800ADFE064605E0FEF7A9FE801BB0F57A7FFE
:10193800D4D863689A04F6D5B7E700BF00480258C0
:1019480000040058024B586800F44040704700BF3C
:1019580000480258044A01460020136823F4404313
:101968000B431360704700BF00480258024B1868C9
:1019780000F44040704700BF0048025838B51F4C7B
:101988000D46236823F0010303432360A2B1012A13
:1019980008D0FFF7B3FA032828D0636923F00403BB
:1019A800636138BDFFF7AAFA0128FAD16369144ABE
:1019B80023F00203636108E0FFF7A0FA0328F0D1DF
:1019C80023690F4A23F001032361136943F00403D9
:1019D8001361BFF34F8FBFF36F8F012D0BD020BF63
:1019E800074A136923F00403136138BD236923F000
:1019F8000403236138BD30BFF2E700BF0048025836
:101A080000ED00E008B5FFF779FA032800D040BFE1
:101A180020BF08BD10B558B101281DD0184B1A6950
:101A280042F004021A615A6942F004025A6110BD78
:101A3800FFF764FA0328FAD1114B12491A6942F0E8
:101A480001021A615A6942F001025A610B6943F0B6
:101A580004030B6130BF10BD094C236943F0020336
:101A68002361FFF74BFA0128E1D16369054A43F086
:101A780002036361136943F00403136130BF10BDAF
:101A88000048025800ED00E0034A136923F400639C
:101A980003431361704700BF0048025828B90C4A35
:101AA800136943F4007313617047012809D0084B88
:101AB8001A6942F400721A615A6942F400725A6152
:101AC8007047034A536943F400735361704700BF7A
:101AD8000048025801280B4B0AD01A69520505D450
:101AE8005A69002042F480625A61704701207047A9
:101AF8005A695105FBD41A69002042F480621A61C0
:101B0800704700BF004802580128064A04D05369AC
:101B180023F4806353617047136923F4806313616E
:101B2800704700BF00480258024A136843F4007324
:101B38001360704700480258024A136823F4007380
:101B48001360704700480258D0E9003193FAA3F2B5
:101B58008AB3B2FA82F2083202F01F0201FA02F2E4
:101B6800816842EA030093FAA3F262B3B2FA82F2FE
:101B78000832520002F01E029140014393FAA3F08A
:101B8800F0B1B0FA80F04FF4807282401A4393FAB1
:101B9800A3F393B1B3FA83F34FF440305B0003F03F
:101BA8001E0300FA03F309481343826A22EA030377
:101BB8000B43836270470822D0E74FF44033F2E7C3
:101BC8004FF48072E2E71022D6E700BF00480258BF
:101BD800024A936A23EA0003936270470048025856
:101BE800014B5B6A1840704700480258044B1A6A58
:101BF80002431A625B6A034214BF01200020704747
:101C080000480258704700BF704700BF704700BFC8
:101C1800704700BF704700BF704700BF08B51D4B35
:101C28005A6AD2071AD45A6A900710D45A6A5107C6
:101C380021D45A6A120725D45A6A12F0100F1A6A68
:101C480013D042F010021A62FFF7E4FF08BD1A6AC7
:101C580042F002021A62FFF7D7FF08BD1A6A42F083
:101C680001021A62FFF7CEFF08BD42F020021A6295
:101C7800FFF7D2FF08BD1A6A42F004021A62FFF7A2
:101C8800C5FF08BD1A6A42F008021A62FFF7C0FFD2
:101C980008BD00BF0048025838B50B4CA36843F094
:101CA8000103A360FEF7EAFC054605E0FEF7E6FC43
:101CB800401BB0F57A7F04D8A368DB03F6D5002073
:101CC80038BD012038BD00BF0048025838B50B4C5C
:101CD800A36823F00103A360FEF7D0FC054605E0E6
:101CE800FEF7CCFC401BB0F57A7F05D8A36813F447
:101CF8008033F5D1184638BD012038BD0048025858
:101D080038B50B4CE36843F00073E360FEF7B6FCAC
:101D1800054605E0FEF7B2FC401BB0F57A7F04D813
:101D2800E3685B01F6D5002038BD012038BD00BF4F
:101D38000048025838B50B4CE36823F00073E360A1
:101D4800FEF79CFC054605E0FEF798FC401BB0F545
:101D58007A7F05D8E36813F08063F5D1184638BD5B
:101D6800012038BD00480258024AD36843F0807306
:101D7800D360704700480258024AD36823F0807342
:101D8800D360704700480258054AD36823F40073AB
:101D98000343D360D36843F48073D360704700BFB4
:101DA80000480258024AD36823F48073D36070470E
:101DB80000480258024A936843F010039360704742
:101DC80000480258024A936823F010039360704752
:101DD80000480258064B986800F44000B0F5800FA0
:101DE80005D0A0F50000B0FA80F04009C0057047A2
:101DF80000480258064B986800F44010B0F5801F60
:101E080005D0A0F50010B0FA80F0400940057047F1
:101E18000048025811494FF0B0430A6810B422F440
:101E2800C022046822430A601A6822F480321A60C9
:101E38005A6822F480325A604268D10703D519687B
:101E480041F480311960930705D54FF0B0425368CB
:101E580043F4803353605DF8044B704700480258E0
:101E6800024A136843F480331360704700480258ED
:101E7800024A136823F480331360704700480258FD
:101E8800704700BF38B52A4C2368DD061AD4284CA1
:101E98002368DD0300D438BDFFF730F803284FF07E
:101EA800B04535D0D5F8C830DA03F4D5FFF7E8FFE8
:101EB8006368DB06EFD4D5F8C83043F48033C5F83F
:101EC800C83038BDFFF71AF803284FF0B0450FD0D7
:101ED800D5F8C830DA03DAD5FFF772FC6368DB039C
:101EE800D5D4D5F8C83043F48033C5F8C830CEE728
:101EF800D5F88830D803CAD5FFF762FC6368D903E0
:101F0800C5D4D5F8883043F48033C5F88830BEE7A7
:101F1800D5F88830D803BED5FFF7B2FF6368D90675
:101F2800B9D4D5F8883043F48033C5F8883038BD43
:101F380000480258334B30B4996A9C6ADD6A14F43D
:101F48007C7F5A6BC4F3051036D0C2F3CC0205F07F
:101F5800010501F0030107EE900A05FB02F20129D1
:101F6800B8EEE77A06EE902AFAEEE96A02D002297C
:101F780042D019B3DFED247A87EE876A1B6BC3F36F
:101F8800080307EE903AF7EE005AF8EEE77A77EE94
:101F9800A67A77EEA57A67EE867A1A4B1B6BC3F39F
:101FA8004623013307EE103AF8EEC76A87EEA67AA1
:101FB800FCEEC77A17EE900A30BC70471A68920692
:101FC8001DD51968F7EE005A104A1B6BC1F3C10101
:101FD800C3F30803CA4007EE903A06EE102AF8EE5B
:101FE800E77AB8EEC66A77EEA66AC6EE077A36EEE4
:101FF800A57A67EE877AD0E7DFED057ABCE7DFEDF3
:10200800057AB9E7004402580024744A0090D003C6
:102018000024744B0024744C5D4AF8B5136803F02F
:102028000F03062B0AD8136823F00F0343F00703A6
:102038001360136803F00F03072B21D1554CFEF7EB
:102048001DFB0546236843F00103236004E0FEF707
:1020580015FB401B022816D823685E07F7D563686E
:1020680000254D4843F080434C4A4D4963604D4B31
:10207800256100680A601A60FEF7A2FA044628B1D2
:1020880001242046F8BD03242046F8BDFEF7F6FAE1
:10209800404E41F28837054604E0FEF7EFFA431B4D
:1020A800BB42F0D8336913F0380FF6D1FEF7E6FAE1
:1020B80032683D4B0546374F1340336004E0FEF766
:1020C800DDFA401B6428DED83B689803F7D4FEF796
:1020D800D5FA3B682F4E054623F080733B6004E039
:1020E800FEF7CCFA401B0228CDD833689901F7D403
:1020F800FEF7C4FA3368274F054623F08063336040
:1021080004E0FEF7BBFA401B0228BCD83B681A0162
:10211800F7D4FEF7B3FA3B681E4D064623F080530A
:102128003B6004E0FEF7AAFA801B0228ABD82B68B4
:1021380013F00053F6D11D49AB611D4AEB612B62C8
:10214800A9621C49E9624FF0FF312A636B63AA63F5
:10215800EB632A646B642A6822F480222A602B6667
:10216800A966D5F8D0300A4A43F48033C5F8D03090
:1021780013681B0785D5136823F00F0343F0070383
:102188001360146804F00F04073C18BF012478E7B3
:102198000020005200440258040000240090D0039C
:1021A8000C0000240800002445EDF6FF000202029E
:1021B800800201010000FF01002800F0E782F8B565
:1021C80003680446D9072ED597490A69896A02F037
:1021D8003802102A00F0EE80182A00F0E6806368C2
:1021E800B3F5803F00F01181002B00F06781B3F553
:1021F800A02F8D4B1A6800F0888222F480321A6072
:102208001A6822F480221A60FEF738FA864E0546CC
:1022180005E0FEF733FA401B642800F24D8133686D
:102228009B03F6D523689D0770D4D90633D57E4A1B
:102238001369926A03F03803082B00F0CB80182B3F
:1022480000F0C380E369784D002B00F06F812B68A4
:1022580043F080032B60FEF711FA064605E0FEF70F
:102268000DFA801B022800F227812B68DB05F6D5C2
:10227800FEF74EFA41F20303984200F26782226A9F
:102288006B68202A23F0F8430CBF43F0804343EAED
:1022980082636B6023681D0716D56369624D002B46
:1022A80000F022816B6F43F001036B67FEF7E6F9DC
:1022B800064605E0FEF7E2F9801B022800F2FC80E2
:1022C8006B6F9807F6D523689A0616D5A369564DFD
:1022D800002B00F01A812B6843F480532B60FEF723
:1022E800CDF9064605E0FEF7C9F9801B022800F281
:1022F800E3802B689F04F6D52368590700F18B808B
:10230800636A002B40F0BF800020F8BD464A13697D
:10231800926A13F038032DD1434BE2681B685907C2
:1023280001D5002A4FD0404D2B6823F019031343E1
:102338002B60FEF7A3F9064605E0FEF79FF9801B20
:10234800022800F2B9802B685B07F6D5FEF7E0F9A2
:1023580041F20303984200F2108122696B68402A17
:1023680023F47C330CBF43F4003343EA02336B603D
:1023780023685AE7182B00F0FC802B4DE2682B6885
:10238800002A00F0E58023F0190313432B60FEF7C1
:1023980075F9064605E0FEF771F9801B022800F280
:1023A8008B802B685F07F6D5D0E701F0030102297F
:1023B8007FF415AF1C4A126892037FF534AF626848
:1023C800002A7FF430AF0120F8BD02F00302012A91
:1023D8007FF438AF144B1B68DA0502D5E369802B0C
:1023E800F1D1FEF795F941F20303984200F2CE804D
:1023F800226A202A00F0B9810B494B6823F0F84380
:1024080043EA82634B60236845E7074A136843F44D
:1024180080331360F8E6054D2B6843F480732B6016
:10242800FEF72CF9064608E0004402580048025816
:10243800FEF724F9801B64283ED82B68DA05F7D507
:10244800A368012B00F08B81002B00F06681052B1F
:10245800854B1A6F00F0928122F001021A671A6FF9
:1024680022F004021A67FEF709F97F4E41F2883715
:10247800054604E0FEF702F9401BB8421CD8336F4A
:102488009B07F7D53CE7784D2A6902F03802182AED
:1024980000F0EE80022B2B6823F080732B607FD036
:1024A800FEF7ECF804462B689B017FF52DAFFEF78D
:1024B800E5F8001B0228F6D90320F8BD6A4D2B6801
:1024C80023F480332B602B6823F480232B60FEF7E2
:1024D800D5F8064604E0FEF7D1F8801B6428EBD84F
:1024E8002B689F03F7D49DE66B6F23F001036B679E
:1024F800FEF7C4F8064604E0FEF7C0F8801B022881
:10250800DAD86B6F9907F7D4DDE62B6823F480538C
:102518002B60FEF7B3F8064604E0FEF7AFF8801B21
:102528000228C9D82B689804F7D4E5E62B6823F06D
:1025380080032B60FEF7A2F8064604E0FEF79EF83B
:10254800801B0228B8D82B68DF05F7D42368A2E6D9
:1025580023F001032B60FEF791F8064604E0FEF72E
:102568008DF8801B0228A7D82B685807F7D4236852
:102578005BE690077FF401AFCEE66B68226923F033
:10258800FE4343EA02636B6023684EE6364A216ADB
:10259800D36823F07C5343EA0163D36023687AE667
:1025A800FEF76CF8064604E0FEF768F8801B022880
:1025B80082D82B689901F7D4A96A2C4BA26A0B40E0
:1025C8001343E26A43EA0213AB62216BD4E90D328A
:1025D8000139013B013AC1F308015B0212049BB2C5
:1025E80002F4FE021343E26B013A0B43120602F0B7
:1025F800FE4213432B63EB6A23F00103EB626B6B20
:10260800A26C6FF3CF0343EAC2036B63EB6A226CDD
:1026180023F00C031343EB62EB6A626C23F00203B2
:102628001343EB62EB6A43F48033EB62EB6A43F4E7
:102638000033EB62EB6A43F48023EB62EB6A43F00E
:102648000103EB622B6843F080732B60FEF716F8EA
:10265800054D04462B689A013FF556AEFEF70EF875
:10266800001B0228F6D927E7004402580CFCFFFF9C
:10267800012BAA6A286B3FF4A6AE02F00303A16AF5
:102688008B427FF4A0AEC2F30512E36A9A427FF44C
:102698009AAE236BC0F30802013B9A427FF493AED3
:1026A800636BC0F34622013B9A427FF48CAEA36B66
:1026B800C0F30642013B9A427FF485AEE36BC0F358
:1026C8000660013B98427FF47EAE6B6BA26CC3F34D
:1026D800CC039A423FF418AE2D4AD36A23F0010383
:1026E800D362FDF7CBFF0546FDF7C8FFA842FBD034
:1026F800274AA16C536B6FF3CF0343EAC1035363BB
:10270800D36A43F00103D362FEE542F480221A60E3
:102718001A6842F480321A6076E51D4D41F2883716
:102728002B6F23F001032B672B6F23F004032B6718
:10273800FDF7A4FF064605E0FDF7A0FF801BB842A1
:102748003FF6BAAE2B6F9807F6D4D9E5EB68226A44
:1027580023F07C5343EA0263EB6023689BE50C4A51
:10276800136F43F0010313677DE6094A536823F0AA
:10277800F84343F08043536023688CE542F0040239
:102788001A671A6F42F001021A676CE60120704757
:102798000044025870B5254E88B00D461446D6F848
:1027A800E030F8B943F001034FF4807202A9C6F88B
:1027B800E030D6F8E030069003F001031C4800939F
:1027C800009B0223CDE9022300220323CDE9042341
:1027D800FEF7A0FB336923F0FE732B4323433361D9
:1027E80008B070BD43F004034FF400721148C6F8F6
:1027F800E030D6F8E03003F0040301930223019996
:1028080002A9CDE9022300220323CDE904230023F2
:102818000693FEF77FFB336923F07E4343EA050105
:1028280041EAC411316108B070BD00BF00440258CC
:102838000000025800080258024A136843F40023B3
:102848001360704700440258024A136823F40023B7
:1028580013607047004402583F4A136903F0380375
:10286800102B4FD0182B0AD0002B4DD11368990686
:102878004CD513683948C3F3C103D8407047916AEF
:1028880030B4946AD56A14F47C7F536BC4F3051092
:1028980036D0C3F3CC0305F0010501F0030107EEC0
:1028A800900A05FB03F30129F8EEE77A06EE903A61
:1028B800FAEEE96A02D0022948D049B39FED287A96
:1028C80087EE276A136BC3F3080307EE103AF7EE97
:1028D800005AB8EEC77A37EE267A37EE257A27EE11
:1028E800067A1D4B1B6BC3F34623013307EE903A60
:1028F800F8EEE76AC7EE267AFCEEE77A17EE900A5A
:1029080030BC7047174870471748704713487047DE
:1029180013689B061DD51068F7EE005A136B0F4914
:10292800C0F3C102C3F30803D14007EE103A06EE24
:10293800101AB8EEC77AB8EEC66A77EE266A86EE3F
:10294800277A76EEA57A27EE277ACAE79FED077AE7
:10295800B6E79FED077AB3E7004402580090D0032A
:102968000024744A0024F40000093D000024744B3C
:102978000024744C002800F00E818D4A136803F07F
:102988000F038B422DE9F04104460D460CD2136823
:1029980023F00F030B431360136803F00F038B42FC
:1029A80002D00120BDE8F081236858070BD5814982
:1029B80020698A6902F07002904204D98A6922F07B
:1029C800700202438A6119070BD57A496069CA699E
:1029D80002F07002904204D9CA6922F070020243E0
:1029E800CA61DA060BD57349A069CA6902F4E062C4
:1029F800904204D9CA6922F4E0620243CA619F0680
:102A08000BD56C49E0690A6A02F07002904204D959
:102A18000A6A22F0700202430A629E0703F001026A
:102A280040F1AB80634EE068B16901F00F01884264
:102A380004D9B16921F00F010143B161002A30D0F6
:102A48005C4AA168936923F470630B4393616168DE
:102A58001368022900F0A180032900F09880012959
:102A680000F0A1805F079CD5524E41F28838336947
:102A780023F007030B433361FDF700FE074605E02B
:102A8800FDF7FCFDC01B404500F28B80336962688E
:102A980003F03803B3EBC20FF2D123689E0706D5C3
:102AA800E06844498A6902F00F02904269D34049BC
:102AB8000A6802F00F02AA420AD90A6822F00F0235
:102AC8002A430A600A6802F00F02AA427FF469AF3B
:102AD80058070BD5374920698A6902F0700290427D
:102AE80004D28A6922F0700202438A6119070BD561
:102AF80030496069CA6902F07002904204D2CA691A
:102B080022F070020243CA61DA060BD52949A0698E
:102B1800CA6902F4E062904204D2CA6922F4E0620F
:102B28000243CA619B060BD5224AE169136A03F086
:102B38007003994204D2136A23F070030B431362A3
:102B4800FFF78AFE1B4A03461B4891699269C1F345
:102B580003211A4D02F00F02194C415C825C01F00E
:102B68001F01184802F01F02CB4000682B60D340B9
:102B78002360BDE8F041FDF723BD002A7FF460AF74
:102B880095E78A6922F00F0202438A618FE79A016A
:102B98003FF56AAF05E70120704798033FF564AF3A
:102BA800FFE60320FEE6DB053FF55EAFF9E600BF72
:102BB8000020005200440258384402080C00002447
:102BC8000800002404000024184A38B5136903F0EB
:102BD8003803102B24D0182B09D01BBB13689B0675
:102BE80022D51268124BC2F3C102D34002E0FFF7AC
:102BF800A1F903460D490F488A698969C2F303227E
:102C08000D4C01F00F010D4D825C405C02F01F027B
:102C180000F01F00D34023FA00F02B60206038BD7D
:102C2800074BE7E7074BE5E7014BE3E700440258AA
:102C38000090D00338440208080000240C00002447
:102C48000024F40000093D001C4A38B5136903F05C
:102C58003803102B2BD0182B09D053BB13689B06B5
:102C680029D51268164BC2F3C102D34002E0FFF720
:102C780061F90346114A13499069134DC0F30320C3
:102C8800124C085C00F01F00C340906900F00F0070
:102C98002B60085C00F01F00C3402360D269C2F3B8
:102CA8000212885C00F01F0023FA00F038BD084BC0
:102CB800E0E7084BDEE7024BDCE700BF00440258C0
:102CC8000090D003384402080C00002408000024B7
:102CD8000024F40000093D001C4A38B5136903F0CC
:102CE8003803102B2BD0182B09D053BB13689B0625
:102CF80029D51268164BC2F3C102D34002E0FFF790
:102D080019F90346114A13499069134DC0F303207A
:102D1800124C085C00F01F00C340906900F00F00DF
:102D28002B60085C00F01F00C3402360D269C2F327
:102D38000222885C00F01F0023FA00F038BD084B1F
:102D4800E0E7084BDEE7024BDCE700BF004402582F
:102D58000090D003384402080C0000240800002426
:102D68000024F40000093D0038B53F22394B0446E1
:102D780002601A68520364D41B6803F48033354D2B
:102D880063602B6803F08003E361FDF7C1FC41F247
:102D9800030398425AD86B68C3F384632D4D2362AA
:102DA8002B6803F00103E360FDF7B2FC41F2030373
:102DB800284A98426B6894BFC3F30533C3F306638C
:102DC8002361136F5B073FD4126F02F00102214B9E
:102DD800A2605A6F02F0010262611A68C2F30032FF
:102DE800A2611A6812F0807F0CBF0122022262627F
:102DF8009A6A02F00302A2629A6AC2F30512E262B8
:102E08001A6BC2F30802013222631A6BC2F306621C
:102E18000132E2631A6BC2F34622013262631A6B13
:102E2800C2F306420132A263DA6A02F00C0222649B
:102E3800DA6AC2F3400262645B6BC3F3CC03A36437
:102E480038BD4FF4A0239AE70522C0E7EB68C3F327
:102E58000563A3E700440258134B3F2210B40260F5
:102E68001A69124C02F0070242609A6902F4706211
:102E780082609A6902F00F02C2609A6902F07002D9
:102E88000261DA6902F070024261DA6902F4E06212
:102E980082611B6A03F07003C36123685DF8044B09
:102EA80003F00F030B6070470044025800200052E3
:102EB800704700BF10B5054C636E5B0500D410BDAC
:102EC800FFF7F6FF4FF48063A36610BD0044025875
:102ED800704700BF0120704708B501F0FFF91622BE
:102EE80003464FF0FF301A6008BD00BF08B501F077
:102EF800F5F916230360FEE770B5161E07DD0C46CC
:102F08008D19AFF3008004F8010BA542F9D13046C2
:102F180070BD00BF70B5161E07DD0C468D1914F87C
:102F2800010BAFF30080A542F9D1304670BD00BF58
:102F38004FF0FF30704700BF4FF4005300204B6044
:102F4800704700BF01207047002070474FF0FF30E6
:102F58000EB403B0704700BF08B501F0BFF90A22EC
:102F680003464FF0FF301A6008BD00BF08B501F0F6
:102F7800B5F9022203464FF0FF301A6008BD00BFC2
:102F88004FF0FF30704700BF4FF4005300204B60F4
:102F9800704700BF08B501F0A1F91F2203464FF0A2
:102FA800FF301A6008BD00BF08B501F097F90B2281
:102FB80003464FF0FF301A6008BD00BF08B501F0A6
:102FC8008DF90C2203464FF0FF301A6008BD00BF90
:102FD800364B3749D3F8882042F4700210B4C3F84E
:102FE80088201A6942F010021A610B6803F00F0377
:102FF800062B05D80B6823F00F0343F007030B607B
:103008002C4B00242C4A1968294841F00101196009
:103018001C6119680A401A600368190705D5036816
:1030280023F00F0343F007030360224B00222349D8
:103038002348244C9A61DA611A629C62D8624FF084
:10304800B04019635A639963DA6319645A6419685A
:1030580021F4802119601A66D0F8E4301A4A43F442
:103068008043C0F8E43013686FF30F03B3F1005FD7
:1030780003D2164B0122C3F808210E4BD3F8D420F3
:10308800D2040FD4D3F8D42043F2D200104942F42A
:103098008052C3F8D4200860D3F8D42022F4805298
:1030A800C3F8D4205DF8044B704700BF00ED00E082
:1030B80000200052004402587FEDF6EA8002010128
:1030C8000000FF01000202020010005C00800051B5
:1030D80000400052494B1B6903F0380330B4182BE9
:1030E8000ED8DFE803F00D0D0D0D0D0D0D0D710D52
:1030F8000D0D0D0D0D0D6F0D0D0D0D0D0D0D270089
:103108003E4B3F4A1B68C3F3C103DA403B4B3D4C7F
:1031180099699B69C1F303213B4803F00F03615C84
:10312800E35CCA4003F01F0322FA03F330BCC0E992
:1031380000327047314B986A9C6ADD6A14F47C7FD0
:10314800596BC4F30512E1D0C1F3CC0105F00105B8
:1031580007EE902A00F0030005FB01F1F8EEE76A9C
:10316800012807EE901AFAEEE97A43D002282DD00A
:103178001968F7EE005A224A1B6BC1F3C101C3F369
:103188000803CA4007EE103A06EE102AB8EEC77ACE
:10319800B8EEC66A77EE277A86EE267A77EEA57AB3
:1031A80027EE277A154B1B6BC3F34623013307EE33
:1031B800903AF8EEE77AC7EE276AFCEEE67A17EE61
:1031C800902AA3E7114AA1E7114A9FE79FED117AD8
:1031D80087EE266A1B6BC3F3080307EE103AF7EE77
:1031E800005AB8EEC77A37EE277A37EE257A27EEF7
:1031F800067AD7E79FED087AEAE700BF004402584D
:103208000090D00338440208080000240024F40089
:1032180000093D000024744B0024744A704700BF25
:1032280003685A004CBF43F0004323F0004318449E
:10323800704700BF2DE9F04759B301F1FF38054643
:10324800164647464FF0000A0AEB070101EBD17119
:10325800491005EBC1094846FFF7E2FF88454FEAE8
:10326800C104034610D004F10800B342284407D82B
:10327800FFF7D6FF0138B04208D201F1010AE3E7AF
:103288008A4506D04F1EDFE7B042F9D84846BDE868
:10329800F0874FF000094846BDE8F087012809D0BB
:1032A800022805D0044B00280CBF184600207047A0
:1032B8000248704702487047893902089139020864
:1032C8008D39020830B5224B83B004468D1E43B3B6
:1032D80001A92846AFF30080F0B101992A46FFF70B
:1032E800A9FF0146C0B1FFF79BFF4B68A064012B03
:1032F8002BD0002B01F1040025DBFFF791FF002301
:1033080023650368E064002B12DBFFF789FF03469F
:103318000020236103B030BD00230920236103B0DE
:1033280030BD0C4B0C49C91AC91018460191D5E794
:10333800C3F30360FFF7B2FF031E0CBF0920002090
:10334800236103B030BD0123DAE700230520E0E75D
:103358000000000060440208304502080368DA07EC
:1033680010B5044606D49B0700F1500009D500F0BB
:103378008FFC2368590709D51A070ED5DB0613D524
:1033880010BD00F07DFC23685907F5D404F1D8007E
:1033980000F086FC23681A07F0D404F5AC7000F03E
:1033A80087FC2368DB06EBD404F5EC70BDE810401D
:1033B80000F0C2BC0346006800B11844704700BF63
:1033C80009207047704700BF70B504460E46316C3F
:1033D8002046FFF777FF054688B9326C626123699A
:1033E80032462146012098470828F0D0072806D100
:1033F8002846316CFFF7E6FF301D00F035FC00F081
:1034080018FF00BF2DE9F04701F1040CC768D0F898
:10341800188006469146BCE80F00ADF5767D03ACF2
:103428000FC4BCE80F000FC4BCE80F000FC49CE831
:103438000F0002AD4FF0000E84E80F00C5F800E061
:1034480021E02B6C73614FF4F47229467CA800F0DC
:1034580071FF33697CAA3146504698478A9BAB6412
:103468004946CDE900588246334601203246B847DE
:10347800814630BB4FF4F4727CA9284600F05AFF0D
:10348800BAF1080F1AD1296C3046FFF71BFF09F172
:10349800090904465FFA89FA0028D2D0AB6BAB64FD
:1034A8003246CDE9005833464AF010010120B847AA
:1034B80038B920460DF5767DBDE8F087BAF1070FDB
:1034C80005D0092420460DF5767DBDE8F0874846ED
:1034D800296CFFF777FF03A800F0C6FB806C7047E4
:1034E800F0B5CB6BFBB001F1040C0B640E4605463E
:1034F800BCE80F0001AC0FC4BCE80F000FC4BCE867
:103508000F000FC49CE80F004FF0FF3784E80F004E
:10351800009706E02B696A4629469847082804461A
:1035280008D110992846FFF7CDFE0028F2D00920CF
:103538007BB0F0BD6846FFF711FF062CF7D1314686
:103548002846FFF741FF00BFC160D96B826119644B
:103558000022194656E700BF70B5C66843690B6478
:10356800AEB903690A4604460D460146022098474B
:10357800072805D008280FD129462046FFF724FF41
:103588003046296CFFF71EFF281D00F06DFB012255
:10359800FFF738FF00F04DFE00F04BFEC2681AB18D
:1035A800CA6B0A6400222DE79AE700BF704700BF84
:1035B800836801460BB1012018477047052915D8C3
:1035C800DFE801F00A031403030501207047009A9D
:1035D800436C13600020704743B90F2A06D800EBEC
:1035E800820200205368009A1360704702207047D7
:1035F80000B585B00A46002303A900911946FFF7D4
:10360800DDFF039805B05DF804FB00BF052915D858
:10361800DFE801F00A031403030501207047009B4B
:103628001B6843640020704743B90F2A06D8009BE3
:1036380000EB82021B68536000207047022070472D
:1036480010B584B0002303AC039200940A461946CF
:10365800FFF7DCFF04B010BD70B5D36BADF5107D7E
:1036680002F1040C136405460C46BCE80F000DF18A
:103678005C0EAEE80F00BCE80F00AEE80F00BCE837
:103688000F00AEE80F009CE80F004FF0FF368EE801
:103698000F00169610E0FFF7D3FF214616A8A8479B
:1036A800034616AA0820694683B9049B984705284B
:1036B80006460CD0092809D026996846FFF702FE6D
:1036C80003460C216A4616A8002BE4D0092616A842
:1036D800FFF744FE30460DF5107D70BD2DE9F04F23
:1036E8001646CA6C89B00D4652F8041B069200F0C3
:1036F800030C002B79D00C0C8DF81D400904E4B2A2
:10370800059102EB840202218DF81C10296DBCF191
:10371800020F08BFAA6B11F0010809D005A93046AD
:1037280000F0A4FB002856D1082009B0BDE8F08FAE
:103738001768002FF2D000F00801CDE90118E34620
:103748009A46BAF1020F4CD01788548802F104093E
:10375800AA6C24F001030F21304603EB0208FFF79F
:1037680047FF80453BD827F0010202EB080383425C
:1037780094BF00230123640004F0020407F001074A
:103788002743012F4ED0022F35D027BBBBF1000FA6
:1037980002D0002B40F0D38009F104021768002FF3
:1037A800CFD105A93046DDF8088000F05FFB90B95D
:1037B800B8F1000FB8D00F213046FFF719FF0E21DE
:1037C80002463046FFF73CFF6C4A0F213046FFF7B0
:1037D80037FF072000E0092009B0BDE8F08F00237B
:1037E800C9E7546802F10809B2E7090205918DF8A2
:1037F8001D30032188E7D9F8004024F00048BBF1C8
:10380800000F47D12BB1019B002B5CD0B8F1000F02
:1038180059D0002C01DA09F1040908F1010209EB79
:103828008202BBE7BBF1000F1CD1C3B1D9F8043049
:10383800D9F80020991C4FEAD272CCD005F158046F
:103848000133049400F08E8009F10400FFF7B2FD03
:1038580004AB01462846AFF30080002859D109F18E
:1038680008029BE70D213046FFF7C2FE2C6A84420E
:10387800F5D1AB6A9945F2D14846FFF7D1FC0F2143
:1038880002463046FFF7DCFE2A4600213046FFF7A5
:10389800D7FE9EE70D213046FFF7AAFE2F6A874222
:1038A800B7D1AB6A9945B4D100240423C5E90B43C9
:1038B8004B44C5F828806B63D9F80030A34258DB25
:1038C80001230293A9E705F15803CDF80CB009F1DB
:1038D8000407B34600241E460BE038460496FFF75B
:1038E80069FD0022014604AB2846AFF30080043787
:1038F800F8B9444504F10104EFD10D215846FFF70A
:1039080077FE049BC5F828900246C5E908230620DF
:1039180062E704460D213046FFF76AFE049E2862DE
:10392800022C04BFEE6205F12C06C5E909690620E0
:1039380052E75E46D9F80040DDF80CB069E7484622
:10394800FFF76EFC09F104030446AB632846AFF3A6
:10395800008000283FF43FAF22460F213046FFF792
:103968006FFE36E730460D21FFF742FE26462862F5
:10397800DBE708F1010209EB82007EE700000000A6
:103988000023ABE60123A9E60223A7E62DE9F041CF
:103998000646C4B01446052900F2E880DFE811F0B5
:1039A80012002D00E60066008B000600836B002CD9
:1039B80040F0DC8053F8042B42648363002044B059
:1039C800BDE8F081002B40F0D180856B1FFA84FCA4
:1039D800012006F1040E00FA03F111EA0C0F2A4641
:1039E80004D052F8041B4EF8231015460133102B4F
:1039F800F1D1A704E2D4B563E0E7012B4FEA1447FD
:103A0800A4B27CD0052B40F0B18007EB0408B8F1D4
:103A1800200F00F2AB800F2F40F2AA80002CCDD0EF
:103A28000268550700F1FF80019302AD284600F0B7
:103A38003BF96400A7F11000B26B019B611E05EB16
:103A4800C0000131043802EB810152F8044B40F800
:103A5800044F8A42F9D1012B00F0CD800F2FB263B9
:103A680040F2E980284600F01BF9A7E7032B7DD137
:103A7800A7B207EB1443102B4FEA144476D8036817
:103A8800190700F1A48022AD284600F033F97A0026
:103A9800B06B05EBC404531E42B1011B625844F8D5
:103AA800042B013B5A1CF9D100EBC700B063284630
:103AB80000F0FEF882E7002B58D1102C56D8036886
:103AC800D8067CD422AD284600F040F9B76B2946C9
:103AD80000234FF0010C0CFA03F22242384603F19E
:103AE800010303D050F8042B0A600746042B01F1A8
:103AF8000401F0D1B763284600F01EF95EE73A19D1
:103B0800102A33D8102F31D00268D10708D5304693
:103B180022F0030240F8502B019300F0B5F8019B06
:103B2800019322AD284600F0AFF8B16B019B002C41
:103B380062D06200013A05EBC7004FF0000801327D
:103B4800043801EB820251F8044B40F8044F9142CB
:103B5800F9D1B8F1000F42D1012B4DD00F2FB1632D
:103B68003FF62CAF284600F093F827E7022026E717
:103B78000268B8F1100F02F0010143D951B122F0E7
:103B8800010242F0020240F8502B019300F084F841
:103B98003268019B0193500751D422AD284600F0AA
:103BA8007BF802A800F080F8C7F110025200B16B50
:103BB800019BA8F11008013A05EBC700BFE723F005
:103BC8001003336006F5EC7000F0C0F87AE723F0D4
:103BD8000803036000F5AC7000F08CF853E7102F71
:103BE800384638BF10204FEA4801103802AD013975
:103BF80005EBC00025E722AD0431B163284600F08B
:103C08003FF8DBE619BB22AD2846019300F044F8E3
:103C1800B16B002CA6D06200019B013A05EBC700EE
:103C28004FF000088BE722F0040240F8D82B0193EC
:103C380000F03AF8F9E622A800F02AF812E7304630
:103C480022F0040240F8D82B00F02EF8A5E7304601
:103C580022F0010242F0020240F8502B019300F0DA
:103C68001BF8019BCFE700BF00F1340191E8380051
:103C78009C46A6464CF8045D90E8FF0FE54600BD5B
:103C880090EC210B704700BF80EC210B704700BF00
:103C980090EC200B704700BF80EC200B704700BFF2
:103CA800D0EC200B704700BFC0EC200B704700BF62
:103CB800F0EC0201F0EC0211F0EC0221F0EC023120
:103CC800F0EC0241F0EC0251F0EC0261F0EC027110
:103CD800F0EC0281F0EC0291F0EC02A1F0EC02B100
:103CE800F0EC02C1F0EC02D1F0EC02E1F0EC02F1F0
:103CF800704700BFE0EC0201E0EC0211E0EC0221A9
:103D0800E0EC0231E0EC0241E0EC0251E0EC02614F
:103D1800E0EC0271E0EC0281E0EC0291E0EC02A13F
:103D2800E0EC02B1E0EC02C1E0EC02D1E0EC02E12F
:103D3800E0EC02F1704700BFB0FC0181B0FC0191DA
:103D4800B0FC01A1B0FC01B1704700BFA0FC01812B
:103D5800A0FC0191A0FC01A1A0FC01B1704700BF2B
:103D6800EC4600B52DE900502DE9FF1F4FF0000388
:103D78002DE90C0001A9FFF7B3FBDDF840E012B014
:103D8800704700BFEC4600B52DE900502DE9FF1F34
:103D98004FF000032DE90C0001A9FFF7DDFBDDF86A
:103DA80040E012B0704700BFEC4600B52DE9005066
:103DB8002DE9FF1F4FF000032DE90C0001A9FFF7C3
:103DC800EDFBDDF840E012B0704700BFEC4600B5EF
:103DD8002DE900502DE9FF1F4FF000032DE90C00DD
:103DE80001ABFFF7B1FBDDF840E012B0704700BF50
:103DF800EC4600B52DE900502DE9FF1F4FF00003F8
:103E08002DE90C0001AAFFF727FCDDF840E012B00D
:103E1800704700BF027A03467AB9427AA2B1416874
:103E2800013A10B44272086803220C1D1A72020289
:103E38005C60000E10BC1A6070470068013A1A7284
:103E480002021A60000E7047B020704700B585B0B6
:103E580003AA0023009219460C22FFF7AFFB039830
:103E680005B05DF804FB00BFF0E700BF2DE9F043A3
:103E7800064685B00D464FF000082846FFF7CAFFF2
:103E8800B028044600F01C8107065BD500F0F0035B
:103E9800A02B1AD030D8802B00F08280902B27D10D
:103EA80000F00D030D2B23D002AF002300F00F020A
:103EB800194600973046FFF781FB002300970D2233
:103EC80019463046FFF7A2FBD7E7C34303F00703C1
:103ED8004FF47F621A41010702F47F6201D542F470
:103EE8008042002319463046FFF750FD0028C4D011
:103EF800092005B0BDE8F083B02B68D0C02B3DD1B8
:103F0800C62800F0CA80C72800F0DF8000F0F80358
:103F1800C02B00F0EC80C82800F0F780C928E7D152
:103F28002846FFF777FF020300F00F0002F4702223
:103F380001300243012105233046FFF727FD002801
:103F48009BD0D5E78300DBB21F1D0DF108090023C4
:103F58001946CDF800900D223046FFF72FFB029B43
:103F6800CDF8009060064CBFDF1BFF1800230D2220
:103F7800194630460297FFF749FB7EE700F0F80341
:103F8800D02BB5D100F007020132052342F40022FC
:103F980001213046FFF7FAFC00283FF46EAFA7E78F
:103FA8002846FFF737FF24022043B0F5004F9FD083
:103FB80004010023A2B219463046FFF7E7FC0028A7
:103FC80096D114F4004F18BF4FF0010855E7A0F13F
:103FD800B103042B00F2B580DFE803F05529160C75
:103FE800030003AA0023009219460D223046FFF76A
:103FF800E5FA42E700231A4605213046FFF7C6FCDA
:1040080000283FF43AAF73E72846FFF703FF02039F
:1040180000F00F00013002F4702201230243194618
:104028003046FFF7B3FC00283FF427AF60E70023D2
:104038000DF108090D221946CDF800903046FFF71A
:10404800BDFA2846FFF7E6FE0206029C4FF002077B
:104058000BD500F07F00B840044428460294FFF7CF
:10406800D9FE030607F10707F3D4B840002304F587
:1040780001740444CDF800900D221946304602948C
:10408800FFF7C4FAF9E62846FFF7C4FE431EDBB281
:104098000E2B02467FF625AF2AE72846FFF7BAFE21
:1040A800020300F00F00013002F4702203230243E0
:1040B80019463046FFF76AFC00283FF4DEAE17E7E2
:1040C800B8F1000F2DD0002013E72846FFF7A2FE15
:1040D800431EDBB20E2B02463FF60AAF0023042133
:1040E8003046FFF753FC00283FF4C7AE00E700F066
:1040F8000F020132032342F4202219463046FFF70B
:1041080045FC00283FF4B9AEF2E62846FFF782FEE8
:1041180000F0F00200F00F031032013343EA0232DC
:1041280008E702AC4346414600940E223046FFF7AA
:1041380045FA0F220094434641463046FFF766FA97
:10414800C1E700F0FC03B42B3FF4D2AE00F0070245
:104158000132012342F4002219463046FFF716FCCB
:1041680000283FF48AAEC3E610B5C26C536884B029
:104178004FF0030C08321C0208461B0E01A90194DB
:1041880002928DF80CC08DF80D30FFF76FFE04B069
:1041980010BD00BF08B5FFF767FE806C08BD00BF03
:1041A80008B5FFF761FEC06CC37900EB83000830E7
:1041B80008BD00BF10B562B6074CFCF723FAFCF740
:1041C80087F8FCF7E3F820460821FDF7E3F94FF4F8
:1041D800FA70FCF777FAF6E700100258DFF838D0E3
:1041E800FFF71CF8FEF7F4FE0C480D490D4A0023B2
:1041F80002E0D458C4500433C4188C42F9D30A4A94
:104208000A4C002301E013600432A242FBD300F001
:104218006BF8FFF7CFFF7047000008240000002468
:104228005C0100243C4502085C0100245004002481
:10423800FEE708B5062000F035F80120FEF756FE27
:1042480002440346934200D1704703F8011BF9E783
:104258001F2938B505460C4604D9162303604FF0CC
:10426800FF3038BDD0F8382112B152F821304BB99F
:10427800284600F031F8224601462846BDE8384075
:1042880000F018B8012B0AD0591C03D1162303607B
:104298000120E6E7002142F8241020469847002034
:1042A800DFE70000024B01461868FFF7D1BF00BFE7
:1042B8001000002438B5074D00230446084611466F
:1042C8002B60FEF709FE431C02D12B6803B1236063
:1042D80038BD00BFB4020024FEF7FCBD014B1868CE
:1042E800704700BF1000002470B50D4D0D4C641BC5
:1042F800A4100026A64209D10B4D0C4C00F08CF8F6
:10430800641BA4100026A64205D170BD55F8043BD5
:1043180098470136EEE755F8043B98470136F2E72F
:104328003045020830450208304502083845020881
:10433800704770470A44914200F1FF3300D170473B
:1043480010B511F8014B03F8014F9142F9D110BD96
:10435800024B13B1024800F005B870470000000096
:1043680079430208002301461A46184600F014B89B
:1043780038B5074D074C641BA4101CB9BDE838407C
:1043880000F050B8013C55F824309847F5E700BFD5
:10439800384502083C4502082DE9F047DFF874A0CB
:1043A8000646DAF8000098460F469146FFF7C0FF28
:1043B800164B1C680CB9164C1C606568DAF80000CE
:1043C8001F2D05DDFFF7B5FF4FF0FF30BDE8F08783
:1043D8009EB104EB85010122C1F88890D4F8883198
:1043E800AA401343C4F88831022EC1F8088102BFDD
:1043F800D4F88C311343C4F88C316B1C02356360DC
:1044080044F82570FFF795FF0020DFE7BC02002481
:10441800C002002458010024F8B500BFF8BC08BC4D
:104428009E467047F8B500BFF8BC08BC9E4670476A
:104438000000000001020304010203040607080942
:1044480008B10181B0B000840000000008B101810A
:08445800B0B000840000000078
:1044600078BEFF7FB0AA1D802CBFFF7FB0AA0F804F
:104470007CC0FF7F0100000054EEFF7FB0A90280E6
:10448000E4EEFF7FB0B0A88034EFFF7F01000000B2
:1044900040EFFF7FB0B0AA8074EFFF7FAE75B280AF
:1044A00044F0FF7F0100000040F0FF7FAB3F3A8007
:1044B000A0F0FF7F01000000A8F0FF7FB0B0AA804D
:1044C000E4F0FF7F0100000098F1FF7FAA0FB280A7
:1044D00014F2FF7FB0AF0880B0F4FF7F010000004E
:1044E000B4F4FF7FAC3F038088F7FF7F010000003A
:1044F00064F9FF7F0084048078F9FF7F01000000E9
:1045000074F9FF7FB0AD048068FCFF7FB0A8038022
:104510008CFCFF7F34FFFF7F90FCFF7F38FFFF7F25
:104520009CFCFF7FB0B0A880BCFCFF7F01000000B6
:0845300059430208BD02020814
:0445380099020208DA
:10453C0001000000100000000090D0030090D00398
:10454C001800002400000000000000007C01002482
:10455C00E40100244C0200240000000000000000D4
:10456C00000000000000000000000000000000003F
:10457C00000000000000000000000000000000002F
:10458C00000000000000000000000000000000001F
:10459C00000000000000000000000000000000000F
:1045AC0000000000000000000000000000000000FF
:1045BC0000000000000000000000000000000000EF
:1045CC0000000000000000000000000000000000DF
:1045DC0000000000000000000000000000000000CF
:1045EC0001000000000000000E33CDAB34126DE66C
:1045FC00ECDE05000B0000000000000000000000D5
:10460C00000000000000000000000000000000009E
:10461C00000000000000000000000000000000008E
:10462C00000000000000000000000000000000007E
:10463C00000000000000000000000000000000006E
:10464C00000000000000000000000000000000005E
:10465C00000000000000000000000000000000004E
:10466C00000000000000000000000000000000003E
:10467C00000000000000000000000000000000002E
:0C468C000000000000000000B802002444
:04000005080241E5C7
:00000001FF
